{
	"data": {
		"bytecode": {
			"linkReferences": {},
			"object": "608060405234801561000f575f80fd5b506106ea8061001d5f395ff3fe608060405260043610610033575f3560e01c80632c058c8414610037578063739b53841461005f578063f72a347214610087575b5f80fd5b348015610042575f80fd5b5061005d600480360381019061005891906103ac565b6100a3565b005b34801561006a575f80fd5b506100856004803603810190610080919061042c565b6100fb565b005b6100a1600480360381019061009c91906104c1565b610138565b005b8373ffffffffffffffffffffffffffffffffffffffff167fe4a69736e7d2c5f50abb06dd63900aaeb88bd51f0b7d68c38d200a60c472dd008483856040516100ed939291906105b3565b60405180910390a250505050565b7f52dad1f42344bfdb2564465f650460bdedf04cd5efd5963263b627afc0d12d83818360405161012c9291906105ef565b60405180910390a15050565b8173ffffffffffffffffffffffffffffffffffffffff166108fc3490811502906040515f60405180830381858888f1935050505015801561017b573d5f803e3d5ffd5b503373ffffffffffffffffffffffffffffffffffffffff167fe4a69736e7d2c5f50abb06dd63900aaeb88bd51f0b7d68c38d200a60c472dd008334846040516101c693929190610678565b60405180910390a25050565b5f604051905090565b5f80fd5b5f80fd5b5f73ffffffffffffffffffffffffffffffffffffffff82169050919050565b5f61020c826101e3565b9050919050565b61021c81610202565b8114610226575f80fd5b50565b5f8135905061023781610213565b92915050565b5f80fd5b5f80fd5b5f601f19601f8301169050919050565b7f4e487b71000000000000000000000000000000000000000000000000000000005f52604160045260245ffd5b61028b82610245565b810181811067ffffffffffffffff821117156102aa576102a9610255565b5b80604052505050565b5f6102bc6101d2565b90506102c88282610282565b919050565b5f67ffffffffffffffff8211156102e7576102e6610255565b5b6102f082610245565b9050602081019050919050565b828183375f83830152505050565b5f61031d610318846102cd565b6102b3565b90508281526020810184848401111561033957610338610241565b5b6103448482856102fd565b509392505050565b5f82601f8301126103605761035f61023d565b5b813561037084826020860161030b565b91505092915050565b5f819050919050565b61038b81610379565b8114610395575f80fd5b50565b5f813590506103a681610382565b92915050565b5f805f80608085870312156103c4576103c36101db565b5b5f6103d187828801610229565b94505060206103e287828801610229565b935050604085013567ffffffffffffffff811115610403576104026101df565b5b61040f8782880161034c565b925050606061042087828801610398565b91505092959194509250565b5f8060408385031215610442576104416101db565b5b5f61044f85828601610229565b925050602083013567ffffffffffffffff8111156104705761046f6101df565b5b61047c8582860161034c565b9150509250929050565b5f610490826101e3565b9050919050565b6104a081610486565b81146104aa575f80fd5b50565b5f813590506104bb81610497565b92915050565b5f80604083850312156104d7576104d66101db565b5b5f6104e4858286016104ad565b925050602083013567ffffffffffffffff811115610505576105046101df565b5b6105118582860161034c565b9150509250929050565b61052481610202565b82525050565b61053381610379565b82525050565b5f81519050919050565b5f82825260208201905092915050565b5f5b83811015610570578082015181840152602081019050610555565b5f8484015250505050565b5f61058582610539565b61058f8185610543565b935061059f818560208601610553565b6105a881610245565b840191505092915050565b5f6060820190506105c65f83018661051b565b6105d3602083018561052a565b81810360408301526105e5818461057b565b9050949350505050565b5f6040820190508181035f830152610607818561057b565b9050610616602083018461051b565b9392505050565b5f819050919050565b5f61064061063b610636846101e3565b61061d565b6101e3565b9050919050565b5f61065182610626565b9050919050565b5f61066282610647565b9050919050565b61067281610658565b82525050565b5f60608201905061068b5f830186610669565b610698602083018561052a565b81810360408301526106aa818461057b565b905094935050505056fea26469706673582212208bb9adb8372a9ccc61bf4b5fa62bc390906f411bfbba9baa098382bd79d87f0464736f6c63430008180033",
			"opcodes": "PUSH1 0x80 PUSH1 0x40 MSTORE CALLVALUE DUP1 ISZERO PUSH2 0xF JUMPI PUSH0 DUP1 REVERT JUMPDEST POP PUSH2 0x6EA DUP1 PUSH2 0x1D PUSH0 CODECOPY PUSH0 RETURN INVALID PUSH1 0x80 PUSH1 0x40 MSTORE PUSH1 0x4 CALLDATASIZE LT PUSH2 0x33 JUMPI PUSH0 CALLDATALOAD PUSH1 0xE0 SHR DUP1 PUSH4 0x2C058C84 EQ PUSH2 0x37 JUMPI DUP1 PUSH4 0x739B5384 EQ PUSH2 0x5F JUMPI DUP1 PUSH4 0xF72A3472 EQ PUSH2 0x87 JUMPI JUMPDEST PUSH0 DUP1 REVERT JUMPDEST CALLVALUE DUP1 ISZERO PUSH2 0x42 JUMPI PUSH0 DUP1 REVERT JUMPDEST POP PUSH2 0x5D PUSH1 0x4 DUP1 CALLDATASIZE SUB DUP2 ADD SWAP1 PUSH2 0x58 SWAP2 SWAP1 PUSH2 0x3AC JUMP JUMPDEST PUSH2 0xA3 JUMP JUMPDEST STOP JUMPDEST CALLVALUE DUP1 ISZERO PUSH2 0x6A JUMPI PUSH0 DUP1 REVERT JUMPDEST POP PUSH2 0x85 PUSH1 0x4 DUP1 CALLDATASIZE SUB DUP2 ADD SWAP1 PUSH2 0x80 SWAP2 SWAP1 PUSH2 0x42C JUMP JUMPDEST PUSH2 0xFB JUMP JUMPDEST STOP JUMPDEST PUSH2 0xA1 PUSH1 0x4 DUP1 CALLDATASIZE SUB DUP2 ADD SWAP1 PUSH2 0x9C SWAP2 SWAP1 PUSH2 0x4C1 JUMP JUMPDEST PUSH2 0x138 JUMP JUMPDEST STOP JUMPDEST DUP4 PUSH20 0xFFFFFFFFFFFFFFFFFFFFFFFFFFFFFFFFFFFFFFFF AND PUSH32 0xE4A69736E7D2C5F50ABB06DD63900AAEB88BD51F0B7D68C38D200A60C472DD00 DUP5 DUP4 DUP6 PUSH1 0x40 MLOAD PUSH2 0xED SWAP4 SWAP3 SWAP2 SWAP1 PUSH2 0x5B3 JUMP JUMPDEST PUSH1 0x40 MLOAD DUP1 SWAP2 SUB SWAP1 LOG2 POP POP POP POP JUMP JUMPDEST PUSH32 0x52DAD1F42344BFDB2564465F650460BDEDF04CD5EFD5963263B627AFC0D12D83 DUP2 DUP4 PUSH1 0x40 MLOAD PUSH2 0x12C SWAP3 SWAP2 SWAP1 PUSH2 0x5EF JUMP JUMPDEST PUSH1 0x40 MLOAD DUP1 SWAP2 SUB SWAP1 LOG1 POP POP JUMP JUMPDEST DUP2 PUSH20 0xFFFFFFFFFFFFFFFFFFFFFFFFFFFFFFFFFFFFFFFF AND PUSH2 0x8FC CALLVALUE SWAP1 DUP2 ISZERO MUL SWAP1 PUSH1 0x40 MLOAD PUSH0 PUSH1 0x40 MLOAD DUP1 DUP4 SUB DUP2 DUP6 DUP9 DUP9 CALL SWAP4 POP POP POP POP ISZERO DUP1 ISZERO PUSH2 0x17B JUMPI RETURNDATASIZE PUSH0 DUP1 RETURNDATACOPY RETURNDATASIZE PUSH0 REVERT JUMPDEST POP CALLER PUSH20 0xFFFFFFFFFFFFFFFFFFFFFFFFFFFFFFFFFFFFFFFF AND PUSH32 0xE4A69736E7D2C5F50ABB06DD63900AAEB88BD51F0B7D68C38D200A60C472DD00 DUP4 CALLVALUE DUP5 PUSH1 0x40 MLOAD PUSH2 0x1C6 SWAP4 SWAP3 SWAP2 SWAP1 PUSH2 0x678 JUMP JUMPDEST PUSH1 0x40 MLOAD DUP1 SWAP2 SUB SWAP1 LOG2 POP POP JUMP JUMPDEST PUSH0 PUSH1 0x40 MLOAD SWAP1 POP SWAP1 JUMP JUMPDEST PUSH0 DUP1 REVERT JUMPDEST PUSH0 DUP1 REVERT JUMPDEST PUSH0 PUSH20 0xFFFFFFFFFFFFFFFFFFFFFFFFFFFFFFFFFFFFFFFF DUP3 AND SWAP1 POP SWAP2 SWAP1 POP JUMP JUMPDEST PUSH0 PUSH2 0x20C DUP3 PUSH2 0x1E3 JUMP JUMPDEST SWAP1 POP SWAP2 SWAP1 POP JUMP JUMPDEST PUSH2 0x21C DUP2 PUSH2 0x202 JUMP JUMPDEST DUP2 EQ PUSH2 0x226 JUMPI PUSH0 DUP1 REVERT JUMPDEST POP JUMP JUMPDEST PUSH0 DUP2 CALLDATALOAD SWAP1 POP PUSH2 0x237 DUP2 PUSH2 0x213 JUMP JUMPDEST SWAP3 SWAP2 POP POP JUMP JUMPDEST PUSH0 DUP1 REVERT JUMPDEST PUSH0 DUP1 REVERT JUMPDEST PUSH0 PUSH1 0x1F NOT PUSH1 0x1F DUP4 ADD AND SWAP1 POP SWAP2 SWAP1 POP JUMP JUMPDEST PUSH32 0x4E487B7100000000000000000000000000000000000000000000000000000000 PUSH0 MSTORE PUSH1 0x41 PUSH1 0x4 MSTORE PUSH1 0x24 PUSH0 REVERT JUMPDEST PUSH2 0x28B DUP3 PUSH2 0x245 JUMP JUMPDEST DUP2 ADD DUP2 DUP2 LT PUSH8 0xFFFFFFFFFFFFFFFF DUP3 GT OR ISZERO PUSH2 0x2AA JUMPI PUSH2 0x2A9 PUSH2 0x255 JUMP JUMPDEST JUMPDEST DUP1 PUSH1 0x40 MSTORE POP POP POP JUMP JUMPDEST PUSH0 PUSH2 0x2BC PUSH2 0x1D2 JUMP JUMPDEST SWAP1 POP PUSH2 0x2C8 DUP3 DUP3 PUSH2 0x282 JUMP JUMPDEST SWAP2 SWAP1 POP JUMP JUMPDEST PUSH0 PUSH8 0xFFFFFFFFFFFFFFFF DUP3 GT ISZERO PUSH2 0x2E7 JUMPI PUSH2 0x2E6 PUSH2 0x255 JUMP JUMPDEST JUMPDEST PUSH2 0x2F0 DUP3 PUSH2 0x245 JUMP JUMPDEST SWAP1 POP PUSH1 0x20 DUP2 ADD SWAP1 POP SWAP2 SWAP1 POP JUMP JUMPDEST DUP3 DUP2 DUP4 CALLDATACOPY PUSH0 DUP4 DUP4 ADD MSTORE POP POP POP JUMP JUMPDEST PUSH0 PUSH2 0x31D PUSH2 0x318 DUP5 PUSH2 0x2CD JUMP JUMPDEST PUSH2 0x2B3 JUMP JUMPDEST SWAP1 POP DUP3 DUP2 MSTORE PUSH1 0x20 DUP2 ADD DUP5 DUP5 DUP5 ADD GT ISZERO PUSH2 0x339 JUMPI PUSH2 0x338 PUSH2 0x241 JUMP JUMPDEST JUMPDEST PUSH2 0x344 DUP5 DUP3 DUP6 PUSH2 0x2FD JUMP JUMPDEST POP SWAP4 SWAP3 POP POP POP JUMP JUMPDEST PUSH0 DUP3 PUSH1 0x1F DUP4 ADD SLT PUSH2 0x360 JUMPI PUSH2 0x35F PUSH2 0x23D JUMP JUMPDEST JUMPDEST DUP2 CALLDATALOAD PUSH2 0x370 DUP5 DUP3 PUSH1 0x20 DUP7 ADD PUSH2 0x30B JUMP JUMPDEST SWAP2 POP POP SWAP3 SWAP2 POP POP JUMP JUMPDEST PUSH0 DUP2 SWAP1 POP SWAP2 SWAP1 POP JUMP JUMPDEST PUSH2 0x38B DUP2 PUSH2 0x379 JUMP JUMPDEST DUP2 EQ PUSH2 0x395 JUMPI PUSH0 DUP1 REVERT JUMPDEST POP JUMP JUMPDEST PUSH0 DUP2 CALLDATALOAD SWAP1 POP PUSH2 0x3A6 DUP2 PUSH2 0x382 JUMP JUMPDEST SWAP3 SWAP2 POP POP JUMP JUMPDEST PUSH0 DUP1 PUSH0 DUP1 PUSH1 0x80 DUP6 DUP8 SUB SLT ISZERO PUSH2 0x3C4 JUMPI PUSH2 0x3C3 PUSH2 0x1DB JUMP JUMPDEST JUMPDEST PUSH0 PUSH2 0x3D1 DUP8 DUP3 DUP9 ADD PUSH2 0x229 JUMP JUMPDEST SWAP5 POP POP PUSH1 0x20 PUSH2 0x3E2 DUP8 DUP3 DUP9 ADD PUSH2 0x229 JUMP JUMPDEST SWAP4 POP POP PUSH1 0x40 DUP6 ADD CALLDATALOAD PUSH8 0xFFFFFFFFFFFFFFFF DUP2 GT ISZERO PUSH2 0x403 JUMPI PUSH2 0x402 PUSH2 0x1DF JUMP JUMPDEST JUMPDEST PUSH2 0x40F DUP8 DUP3 DUP9 ADD PUSH2 0x34C JUMP JUMPDEST SWAP3 POP POP PUSH1 0x60 PUSH2 0x420 DUP8 DUP3 DUP9 ADD PUSH2 0x398 JUMP JUMPDEST SWAP2 POP POP SWAP3 SWAP6 SWAP2 SWAP5 POP SWAP3 POP JUMP JUMPDEST PUSH0 DUP1 PUSH1 0x40 DUP4 DUP6 SUB SLT ISZERO PUSH2 0x442 JUMPI PUSH2 0x441 PUSH2 0x1DB JUMP JUMPDEST JUMPDEST PUSH0 PUSH2 0x44F DUP6 DUP3 DUP7 ADD PUSH2 0x229 JUMP JUMPDEST SWAP3 POP POP PUSH1 0x20 DUP4 ADD CALLDATALOAD PUSH8 0xFFFFFFFFFFFFFFFF DUP2 GT ISZERO PUSH2 0x470 JUMPI PUSH2 0x46F PUSH2 0x1DF JUMP JUMPDEST JUMPDEST PUSH2 0x47C DUP6 DUP3 DUP7 ADD PUSH2 0x34C JUMP JUMPDEST SWAP2 POP POP SWAP3 POP SWAP3 SWAP1 POP JUMP JUMPDEST PUSH0 PUSH2 0x490 DUP3 PUSH2 0x1E3 JUMP JUMPDEST SWAP1 POP SWAP2 SWAP1 POP JUMP JUMPDEST PUSH2 0x4A0 DUP2 PUSH2 0x486 JUMP JUMPDEST DUP2 EQ PUSH2 0x4AA JUMPI PUSH0 DUP1 REVERT JUMPDEST POP JUMP JUMPDEST PUSH0 DUP2 CALLDATALOAD SWAP1 POP PUSH2 0x4BB DUP2 PUSH2 0x497 JUMP JUMPDEST SWAP3 SWAP2 POP POP JUMP JUMPDEST PUSH0 DUP1 PUSH1 0x40 DUP4 DUP6 SUB SLT ISZERO PUSH2 0x4D7 JUMPI PUSH2 0x4D6 PUSH2 0x1DB JUMP JUMPDEST JUMPDEST PUSH0 PUSH2 0x4E4 DUP6 DUP3 DUP7 ADD PUSH2 0x4AD JUMP JUMPDEST SWAP3 POP POP PUSH1 0x20 DUP4 ADD CALLDATALOAD PUSH8 0xFFFFFFFFFFFFFFFF DUP2 GT ISZERO PUSH2 0x505 JUMPI PUSH2 0x504 PUSH2 0x1DF JUMP JUMPDEST JUMPDEST PUSH2 0x511 DUP6 DUP3 DUP7 ADD PUSH2 0x34C JUMP JUMPDEST SWAP2 POP POP SWAP3 POP SWAP3 SWAP1 POP JUMP JUMPDEST PUSH2 0x524 DUP2 PUSH2 0x202 JUMP JUMPDEST DUP3 MSTORE POP POP JUMP JUMPDEST PUSH2 0x533 DUP2 PUSH2 0x379 JUMP JUMPDEST DUP3 MSTORE POP POP JUMP JUMPDEST PUSH0 DUP2 MLOAD SWAP1 POP SWAP2 SWAP1 POP JUMP JUMPDEST PUSH0 DUP3 DUP3 MSTORE PUSH1 0x20 DUP3 ADD SWAP1 POP SWAP3 SWAP2 POP POP JUMP JUMPDEST PUSH0 JUMPDEST DUP4 DUP2 LT ISZERO PUSH2 0x570 JUMPI DUP1 DUP3 ADD MLOAD DUP2 DUP5 ADD MSTORE PUSH1 0x20 DUP2 ADD SWAP1 POP PUSH2 0x555 JUMP JUMPDEST PUSH0 DUP5 DUP5 ADD MSTORE POP POP POP POP JUMP JUMPDEST PUSH0 PUSH2 0x585 DUP3 PUSH2 0x539 JUMP JUMPDEST PUSH2 0x58F DUP2 DUP6 PUSH2 0x543 JUMP JUMPDEST SWAP4 POP PUSH2 0x59F DUP2 DUP6 PUSH1 0x20 DUP7 ADD PUSH2 0x553 JUMP JUMPDEST PUSH2 0x5A8 DUP2 PUSH2 0x245 JUMP JUMPDEST DUP5 ADD SWAP2 POP POP SWAP3 SWAP2 POP POP JUMP JUMPDEST PUSH0 PUSH1 0x60 DUP3 ADD SWAP1 POP PUSH2 0x5C6 PUSH0 DUP4 ADD DUP7 PUSH2 0x51B JUMP JUMPDEST PUSH2 0x5D3 PUSH1 0x20 DUP4 ADD DUP6 PUSH2 0x52A JUMP JUMPDEST DUP2 DUP2 SUB PUSH1 0x40 DUP4 ADD MSTORE PUSH2 0x5E5 DUP2 DUP5 PUSH2 0x57B JUMP JUMPDEST SWAP1 POP SWAP5 SWAP4 POP POP POP POP JUMP JUMPDEST PUSH0 PUSH1 0x40 DUP3 ADD SWAP1 POP DUP2 DUP2 SUB PUSH0 DUP4 ADD MSTORE PUSH2 0x607 DUP2 DUP6 PUSH2 0x57B JUMP JUMPDEST SWAP1 POP PUSH2 0x616 PUSH1 0x20 DUP4 ADD DUP5 PUSH2 0x51B JUMP JUMPDEST SWAP4 SWAP3 POP POP POP JUMP JUMPDEST PUSH0 DUP2 SWAP1 POP SWAP2 SWAP1 POP JUMP JUMPDEST PUSH0 PUSH2 0x640 PUSH2 0x63B PUSH2 0x636 DUP5 PUSH2 0x1E3 JUMP JUMPDEST PUSH2 0x61D JUMP JUMPDEST PUSH2 0x1E3 JUMP JUMPDEST SWAP1 POP SWAP2 SWAP1 POP JUMP JUMPDEST PUSH0 PUSH2 0x651 DUP3 PUSH2 0x626 JUMP JUMPDEST SWAP1 POP SWAP2 SWAP1 POP JUMP JUMPDEST PUSH0 PUSH2 0x662 DUP3 PUSH2 0x647 JUMP JUMPDEST SWAP1 POP SWAP2 SWAP1 POP JUMP JUMPDEST PUSH2 0x672 DUP2 PUSH2 0x658 JUMP JUMPDEST DUP3 MSTORE POP POP JUMP JUMPDEST PUSH0 PUSH1 0x60 DUP3 ADD SWAP1 POP PUSH2 0x68B PUSH0 DUP4 ADD DUP7 PUSH2 0x669 JUMP JUMPDEST PUSH2 0x698 PUSH1 0x20 DUP4 ADD DUP6 PUSH2 0x52A JUMP JUMPDEST DUP2 DUP2 SUB PUSH1 0x40 DUP4 ADD MSTORE PUSH2 0x6AA DUP2 DUP5 PUSH2 0x57B JUMP JUMPDEST SWAP1 POP SWAP5 SWAP4 POP POP POP POP JUMP INVALID LOG2 PUSH5 0x6970667358 0x22 SLT KECCAK256 DUP12 0xB9 0xAD 0xB8 CALLDATACOPY 0x2A SWAP13 0xCC PUSH2 0xBF4B PUSH0 0xA6 0x2B 0xC3 SWAP1 SWAP1 PUSH16 0x411BFBBA9BAA098382BD79D87F046473 PUSH16 0x6C634300081800330000000000000000 "
		},
		"gasEstimates": {
			"creation": {
				"codeDepositCost": "354000",
				"executionCost": "391",
				"totalCost": "354391"
			},
			"external": {
				"Transfer(address,string)": "infinite",
				"addRecipient(address,string)": "infinite",
				"saveTx(address,address,string,uint256)": "infinite"
			}
		},
		"methodIdentifiers": {
			"Transfer(address,string)": "f72a3472",
			"addRecipient(address,string)": "739b5384",
			"saveTx(address,address,string,uint256)": "2c058c84"
		}
	},
	"abi": [
		{
			"anonymous": false,
			"inputs": [
				{
					"indexed": false,
					"internalType": "string",
					"name": "name",
					"type": "string"
				},
				{
					"indexed": false,
					"internalType": "address",
					"name": "to",
					"type": "address"
				}
			],
			"name": "SaveName",
			"type": "event"
		},
		{
			"anonymous": false,
			"inputs": [
				{
					"indexed": true,
					"internalType": "address",
					"name": "from",
					"type": "address"
				},
				{
					"indexed": false,
					"internalType": "address",
					"name": "to",
					"type": "address"
				},
				{
					"indexed": false,
					"internalType": "uint256",
					"name": "amount",
					"type": "uint256"
				},
				{
					"indexed": false,
					"internalType": "string",
					"name": "symbol",
					"type": "string"
				}
			],
			"name": "Transations",
			"type": "event"
		},
		{
			"inputs": [
				{
					"internalType": "address payable",
					"name": "_to",
					"type": "address"
				},
				{
					"internalType": "string",
					"name": "_symbol",
					"type": "string"
				}
			],
			"name": "Transfer",
			"outputs": [],
			"stateMutability": "payable",
			"type": "function"
		},
		{
			"inputs": [
				{
					"internalType": "address",
					"name": "_to",
					"type": "address"
				},
				{
					"internalType": "string",
					"name": "_name",
					"type": "string"
				}
			],
			"name": "addRecipient",
			"outputs": [],
			"stateMutability": "nonpayable",
			"type": "function"
		},
		{
			"inputs": [
				{
					"internalType": "address",
					"name": "_owner",
					"type": "address"
				},
				{
					"internalType": "address",
					"name": "_to",
					"type": "address"
				},
				{
					"internalType": "string",
					"name": "_symbol",
					"type": "string"
				},
				{
					"internalType": "uint256",
					"name": "_amount",
					"type": "uint256"
				}
			],
			"name": "saveTx",
			"outputs": [],
			"stateMutability": "nonpayable",
			"type": "function"
		}
	]
}